:020000022000DC
:1060000000F0002071630200596302005B6302002C
:106010005D6302005F630200616302000000000034
:1060200000000000000000000000000063630200A8
:1060300065630200000000006763020069630200FC
:106040006B6302006B6302006B6302006B63020010
:106050006B6302006B630200D5BF03006B63020039
:10606000ADC50300C5C50300A58403006B63020032
:106070006B6302006B6302006B6302006B630200E0
:106080006B630200F922040005CB02006B6302007F
:106090005D2304006B63020075B403006B630200B0
:1060A0006B6302006B6302006B6302006B630200B0
:1060B0006B6302006B630200000000000000000040
:1060C0006B6302006B6302006B6302006B63020090
:1060D0006B6302006B6302006B6302000000000050
:1060E00000000000000000000000000000000000B0
:1060F00000000000000000000000000000000000A0
:10610000000000000000000000000000000000008F
:10611000000000000000000000000000000000007F
:10612000000000000000000000000000000000006F
:10613000000000000000000000000000000000005F
:10614000000000000000000000000000000000004F
:10615000000000000000000000000000000000003F
:10616000000000000000000000000000000000002F
:10617000000000000000000000000000000000001F
:10618000000000000000000000000000000000000F
:1061900000000000000000000000000000000000FF
:1061A00000000000000000000000000000000000EF
:1061B00000000000000000000000000000000000DF
:1061C00000000000000000000000000000000000CF
:1061D00000000000000000000000000000000000BF
:1061E00000000000000000000000000000000000AF
:1061F000000000000000000000000000000000009F
:10620000354936480A1A02D0072291438D4634494F
:1062100034480A1A06D00722914381F309880222E2
:1062200082F3148830483149314A00F043F831484C
:106230003149324A00F03EF831483249324A00F0E2
:1062400039F832483249334A00F034F83248334999
:10625000334A00F02FF833483349344A00F02AF823
:1062600033483449344A00F025F834483449002290
:1062700000F02BF833483449002200F026F8334868
:106280003349091A082903DB002202600430016047
:106290001F482049884205D00268043003B4904763
:1062A00003BCF7E700208646EC4600200021294A7F
:1062B0009047FEE7884207D0521A05D00378013094
:1062C0000B700131013AF9D17047884202D0027057
:1062D0000130FAE77047000000F0002000E80020DD
:1062E00000F0002000F0002088430400A02D0020D2
:1062F000E42E0020A8630200A863020028280400FE
:1063000088430400A02D0020A02D00203429040083
:1063100034290400342904003429040034290400F9
:10632000342904003429040034290400864304007D
:10633000CC440400E42E0020E42E0020E42E0020B3
:10634000085A0020085A0020085A0020085A002045
:10635000085E0020316E0200FEE7FEE7FEE7FEE782
:10636000FEE7FEE7FEE7FEE7FEE7FEE7704700BF59
:106370000948804709484FF0070188438546084887
:1063800080470848016841F470010160BFF34F8FF6
:10639000BFF36F8FFFF734BF6D63020000F0002082
:0863A000A1BA030088ED00E042
:1063A80041DF7047014B01221A707047EC2F002023
:1063B8000C4B1B6813F4804F13D00B4B1B68012B3D
:1063C8000FDD00B583B0094BD3F80435084A0092B5
:1063D8004FF497720749022007F094FB03B05DF869
:1063E80004FB7047482E0020442E00200010014076
:1063F800B82A0400AE2A040010B586B05068E8B187
:106408001B4B1B6813F4804F03D01A4B1B68032BDC
:1064180001DC06B010BD184BD3F804354988147850
:1064280052780490039202940191144A00924FF416
:10643800AB721349042007F065FBEAE70C4B1B68B5
:1064480013F4804FE5D00B4B1B68032BE1DD0A4B9F
:10645800D3F804354988127802920191094A0092CA
:1064680040F25B120649042007F04CFBD1E700BF5D
:10647800482E0020442E0020001001403C2B040030
:10648800AE2A0400902B040000B583B0012A20D066
:1064980052B1022A38D0274A40F24911032015F098
:1064A80025FC03B05DF804FB234B1B6813F4804FF5
:1064B800F7D0224B1B68032BF3DD214BD3F80435AF
:1064C800204A00924FF49E721F49042007F01AFBDD
:1064D800E7E7062232214FF4F01001F03BF9164BA2
:1064E8001B6813F4804FDCD0144B1B68032BD8DDDA
:1064F800134BD3F80435154A009240F24112124961
:10650800042007F0FFFACCE70B4B1B6813F4804F0D
:10651800C7D00A4B1B68032BC3DD094BD3F80435DE
:106528000B4A009240F245120749042007F0EAFAA4
:10653800B7E700BF642A0400482E0020442E00203C
:1065480000100140D82A0400AE2A0400F82A0400EA
:10655800182B040038B505460024084B1B78A342C5
:106568000AD9230106220649C95868681CF094F81C
:1065780010B10134E4B2F0E7204638BDA52F002061
:10658800E42E002070B586B004460E4605F0D2FB16
:106598005F4A1378591C11708DF815303223049313
:1065A800642303932379012B01D006B070BD0546FF
:1065B800A3783BB13301574AD358C21A46D4564B35
:1065C8009A4245D8E37843B1524B03EB06135B6814
:1065D800EA1A64D4504B9A4263D82378002B72D0BD
:1065E8004C4B03EB06139B68EA1A6AD44A4B9A424F
:1065F80069D919220021494801F0D8FD1128F8D09D
:10660800444B03EB0616B56001238DF814300223C2
:1066180003AA05A942481BF00BFB0028C5D1414B32
:106628001B6813F4804FC0D03F4B1B68032BBCDDA5
:106638003E4BD3F804359DF8142001923C4A009251
:10664800F4223C49042007F05DFAAEE71A1AB6E7CF
:106658003301304AD55001218DF81410112001F072
:106668005DF803AA05A934481BF0A4FA0028B4D1A0
:106678002C4B1B6813F4804FAFD02B4B1B68032B9C
:10668800ABDD2A4BD3F804359DF8142001922B4A30
:106698000092DA222749042007F034FA9DE75A1BB2
:1066A80098E71C4B03EB06135D6000218DF814106E
:1066B800112001F033F803AA05A91F481BF07AFA44
:1066C800D4E75A1B92E76378002B3FF46EAF114B67
:1066D80003EB0613DB68EA1A18D40F4B9A427FF6CD
:1066E80064AF322200210D4801F060FD1128F8D076
:1066F800084B03EB0616F56000238DF814300223CF
:1067080003AA05A906481BF093FA86E75A1BE4E793
:10671800EE2F0020CC2F002020A1070060290400C4
:10672800702F0020482E0020442E00200010014029
:10673800402C0400AE2A04003C2F0020182C040032
:1067480000B583B038222349012000F0F5FDB0B927
:10675800214B1B6813F4804F03D0204B1B68032B7D
:1067680002DC03B05DF804FB1D4BD3F804351D4A69
:10677800009294221C49042007F0C4F9F1E7062886
:1067880013D0154B1B6813F4804FEAD0134B1B68CA
:10679800002BE6DD124BD3F80435144A00929C22F4
:1067A8001149012007F0AEF9DBE70B4B1B6813F426
:1067B800804FD6D0094B1B68032BD2DD084BD3F88A
:1067C80004350B4A009298220749042007F09AF9E9
:1067D800C7E700BF042F0020482E0020442E0020C9
:1067E8000010014068290400AE2A0400BC290400F6
:1067F8008C290400F0B587B004460378012B1BD020
:106808005BBB3E4B1B78012B3FD93D4B1B6813F4F8
:10681800804F22D03B4B1B68002B1EDD3A4BD3F830
:10682800043502220192394A00924FF49372384992
:10683800012007F067F910E0314B1B6813F4804F13
:1068480003D0304B1B68032B09DC2046FFF782FE80
:10685800014604F10800FFF795FE07B0F0BD2A4B8A
:10686800D3F80435827AC17A007A657A267B059650
:106878000495039002910192264A009240F20B126D
:106888002349042007F03EF9DFE78668224DDA0045
:10689800D01A810068188661666837686F50B188B9
:1068A80081800346E268166854689068D268C3F825
:1068B8000660C3F80A40C3F80E00C3F81220FFF7B9
:1068C8003FFF0E4C2178CA00501A830018332B441E
:1068D800124F0E01B8194360531A9A001544BD515E
:1068E8000635856000F0E6FB237801332370042227
:1068F800C8214FF4F01000F02DFFAEE7A52F0020BF
:10690800482E0020442E002000100140282A0400B0
:10691800AE2A0400F8290400042F0020E42E0020E9
:1069280000B58BB02022002101A81BF014FF012321
:106938008DF8043007238DF8073006238DF80C30C6
:106948000A4B05930A4B09930A4901A80AF09AFAD7
:1069580028B9094804F0FCFE0BB05DF804FB074AAF
:1069680040F2ED1115F0C2F9F3E700BF456C0200E3
:10697800616B0200A42F0020A02D0020642A0400CF
:1069880000B583B01A4A042146F2010007F09EF8C8
:10699800184B1B6813F4804F03D0174B1B68032B4D
:1069A80014DC1BF0DBFCE8B900F01AFF01F0A8F8D2
:1069B80001F0C4F801F0F0F8FFF7B2FF00F0A0FB17
:1069C8000E4800F087FB03B05DF804FB0C4BD3F8CE
:1069D80004350C4A009240F2F7120B49042007F0E4
:1069E80091F8DEE7094A40F2F91115F07FF9DBE783
:1069F800A9DA0200482E0020442E0020FD6702007C
:106A080000100140882C0400AE2A0400642A040007
:106A180070B582B02A4B1B6813F4804F03D0294B02
:106A28001B68032B0EDC38222749012000F06AFC82
:106A3800002842D0254B00221A70254804F096FE03
:106A480002B070BD234BD3F80435234A009240F2BC
:106A58000F222249042007F055F8E4E70134E4B294
:106A6800012CEAD81849E200101B83000B441C4E85
:106A780025017019735106338360131B9A0018326D
:106A880011444160114A13780133137000F012FB6E
:106A98000B4B1B6813F4804FE0D00A4B1B68032B89
:106AA800DCDD0C4BD3F804350E4A009240F21B2271
:106AB8000A49042007F026F8D0E70024D0E700BFF1
:106AC800482E0020442E0020042F0020A52F00204F
:106AD800596B020000100140D82B0400AE2A0400B4
:106AE800E42E0020F02B040003780E2B22D100B5F1
:106AF80083B0114B1B6813F4804F03D00F4B1B68F6
:106B0800042B05DC0E4B1B7873B103B05DF804FB56
:106B18000C4BD3F804350C4A00924FF4CC720B4955
:106B2800052006F0EFFFEDE7FFF772FF044B0122A7
:106B38001A70EAE7704700BF482E0020442E002054
:106B4800ED2F002000100140BC2B0400AE2A0400E9
:106B580008B500F021FA08BD10B582B0194B1B68C2
:106B680013F4804F03D0184B1B68032B01DC00245F
:106B78000CE0164BD3F80435154A009240F2AB12DC
:106B88001449042006F0BEFFF1E70134012C17D8A0
:106B9800114B342000FB0430104B03630023836245
:106BA80080F82C3080F82D30611CC9B21AF0C8FF6B
:106BB8000028EAD00A4A40F2B51115F097F8E4E740
:106BC80002B010BD482E0020442E002000100140C5
:106BD800C02C0400AE2A04003C2F00207C2C0400AA
:106BE800642A040000B583B00F4B1B6813F4804F70
:106BF80003D00E4B1B68032B0ADC0322C8214FF479
:106C0800F01000F0A7FD0AF087F903B05DF804FB67
:106C1800074BD3F80435074A009240F2611206493F
:106C2800042006F06FFFE8E7482E0020442E0020DD
:106C380000100140E02C0400AE2A040008B50378D7
:106C48001C2B00D008BDFFF7CDFFFBE710B50446AD
:106C580000214FF4F01000F072FD4FF4FA7202FBBD
:106C680004F2054B83FB0232121132214FF4C0109B
:106C780000F070FD10BD00BF1F85EB5130B587B027
:106C88006421194800F0EAFC184B1B789BB10021DD
:106C98004FF4F01000F053FD0222C8214FF4F01019
:106CA80000F058FD01F0DAFB00F0BAFD0AF026F911
:106CB800A0B907B030BD6C460D4D0FCD0FC495E897
:106CC800030084E80300684600F05EFC0028DED07C
:106CD800084A4FF40E7115F009F8D8E7054A4FF441
:106CE800117115F003F8E4E7216E0200A42F0020CB
:106CF80034290400642A040008B500F063FD08BDC7
:106D080000B585B0214B1B6813F4804F03D0204B8E
:106D18001B68032B1FDC00F011FF00F03DFF03A8E8
:106D28000FF038FE194B1B6813F4804F03D0184B33
:106D38001B68032B1BDC00F045FD00214FF4F0100D
:106D480000F0FDFC0422C8214FF4F01000F002FD11
:106D580005B05DF804FB0F4BD3F804350E4A0092DA
:106D68004FF4E4720D49042006F0CCFED3E7094B3A
:106D7800D3F80435BDF80C200192094A009240F27C
:106D8800D3120649042006F0BDFED4E7482E0020A1
:106D9800442E002000100140FC2C0400AE2A040000
:106DA800182D040010B582B00446154B1B6813F467
:106DB800804F03D0134B1B68032B05DC012C10D02C
:106DC800032C11D002B010BD0F4BD3F8043501903D
:106DD8000E4A009240F271120D49042006F092FE0C
:106DE800ECE7FFF7ADFCEDE70BF076FC382109483E
:106DF80000F0DAFA0AF02FF8FFF7F4FEE2E700BF36
:106E0800482E0020442E002000100140682C040069
:106E1800AE2A0400042F00203038032800D9704718
:106E280008B5FFF7BFFF08BD30B587B0FFF7A8FD6D
:106E3800FFF724FF01AC0A4D0FCD0FC42B68236068
:106E4800084A01A9084801F0C5F928B9064801F01F
:106E580097FAFFF7A5FAFCE714F03AFFF6E700BF48
:106E68004C290400AD6302006029040082684B6865
:106E780019688A4202D91A600120704700207047B9
:106E880030B442685378FF2B06D0FF2B1DD0082B57
:106E98002ED0002030BC70471478102CF5D85588B7
:106EA80040F2DA34A542F0D101230B7054688C60AB
:106EB80084680F344C60CA604278043AD2B20A74CB
:106EC800406802444A611846E4E714781D2CDED174
:106ED800558840F2DA34A542D9D100230B705368A3
:106EE8008B600832CA60436818334B600120D1E7D1
:106EF800137AFF2B01D00020CCE7B2F8094040F20A
:106F0800DA339C4201D00020C4E700230B70D2F88A
:106F18000B308B600F32CA6083680F334B600120DF
:106F2800B8E7037C0D2B35D870B58EB00D460446F6
:106F380046680622096830461BF0AEFB10B10020F7
:106F48000EB070BD0AA930680A90B388ADF82C302D
:106F5800E2685368CDF82E300023ADF832308DF852
:106F68003430A868019002910393ADF8103005926F
:106F7800227CADF8182007936369089304238DF8E1
:106F880024300DF103010DEB030005F028FE9DF8F8
:106F98000300D5E70020704770B58EB008A9FFF749
:106FA8006FFF38B19DF8203033B1012B1FD07846E0
:106FB80000F0D2FE0EB070BD374B1C684CB10622F3
:106FC800099954F80C0C1BF067FB0028F2D02468D0
:106FD800F4E700238DF80830099B03930A9B049378
:106FE8000B9B05932D4B1B6802A89847E2E70123EA
:106FF8008DF80830099B0393274B1C6822E0C5F3E2
:1070080040038DF81230C5F380038DF81330C5F3B3
:10701800C0038DF810302D098DF8115006F00106C7
:107028008DF814600B9B093306939DF83030093BAB
:10703800DBB28DF81C30042BBCD8184B1B6802A897
:1070480098472468002CB5D0A4F10C05294608A857
:10705800FFF767FF0028F4D0294608A8FFF706FFC6
:107068000028EED00B9B1E7A06F01F050C4B1B6800
:1070780013F4804FC3D00B4B1B68032BBFDD0A4BA7
:10708800D3F80435094A009240F22B12084904202B
:1070980006F038FDB3E700BFF42F0020F02F0020E2
:1070A800482E0020442E002000100140B02D04007E
:1070B800A62D040010B5044628B104F10C010448BB
:1070C80006F05EFC10BD784600F046FEF5E700BF0E
:1070D800F42F002010B5044610B1034B1C6010BDFE
:1070E800784600F039FEF8E7F02F002008B5034A8B
:1070F8004821032014F0FAFD08BD00BF082E040043
:1071080000B58BB008A909A809F014FFA8B9194B54
:107118000593194B0693194B079304230493099B72
:10712800A3F5805302930123039302A9144807F09F
:1071380088FC38B90BB05DF804FB124A702114F0D2
:10714800D5FDE4E7104807F0CBFC104B1B6813F49F
:10715800804FEFD00E4B1B68002BEBDD0D4BD3F8A7
:1071680004350D4A00927E220C49012006F0CAFC23
:10717800E0E700BF39720200F5700200A971020051
:10718800F82F0020082E0400AC2D0020482E0020E7
:10719800442E002000100140DC2D0400522E040073
:1071A8000C4B1B6813F4804F03D00B4B1B68032B4D
:1071B80000DC704700B583B0084BD3F80435084AA3
:1071C800009254220749042006F09CFC03B05DF8A5
:1071D80004FB00BF482E0020442E00200010014070
:1071E8007C2E0400522E040010B582B004460B4BCE
:1071F8001B6813F4804F03D0094B1B68032B02DC78
:10720800A04702B010BD074BD3F80435064A0092D8
:107218004D220649042006F075FCF1E7482E0020AF
:10722800442E002000100140642E0400522E040059
:1072380010B582B01446154B1B6813F4804F03D069
:10724800134B1B68032B07DC012C10D0022C12D027
:10725800032C14D002B010BD0E4BD3F804350E4ADF
:10726800009238220D49042006F04CFCECE77846E1
:1072780000F072FDEAE7784600F06EFDE8E7084A9C
:107288004121042014F032FDE4E700BF482E00201D
:10729800442E002000100140A42E0400522E0400A9
:1072A800082E040000B583B00F4B1B6813F4804F01
:1072B80003D00E4B1B68032B06DC0D4807F074F94E
:1072C80068B903B05DF804FB0A4BD3F804350A4AE1
:1072D80000925E220949042006F014FCEDE70848F4
:1072E80007F0FEFBEDE700BF482E0020442E0020EB
:1072F800F82F002000100140942E0400522E0400A4
:10730800BC2D002070B582B00C46154602AB43F880
:10731800042D0A460146074807F03CFA064610B90C
:10732800304602B070BD2A46002120461BF013FAF1
:10733800F6E700BFF82F002070B582B00D4616465C
:107348000146134807F065FA0446124B1B6813F40C
:10735800804F03D0104B1B68032B0BDCACB13246BB
:107368002946201D1BF0CEF9204607F08BFA002095
:1073780002B070BD094BD3F80435094A0092922235
:107388000849042006F0BEFBE8E71120F0E700BF3B
:10739800F82F0020482E0020442E00200010014025
:1073A800CC2D0400522E040008B50A4600211BF01B
:1073B800D2F9FFF777FF08BD2C4B1B78002B54D070
:1073C80000B585B0012804D0032847D005B05DF882
:1073D80004FB04A9002341F8083D012013F0F2FE44
:1073E80048BB02A813F040FF40BB04A9012341F8A1
:1073F800043D0DF1060010F005F810BBBDF80600BD
:107408000FF09EFC0DF105010FF0ECFDE0B90BF05B
:107418003DF89DF8051000200BF076F9B8B904F096
:1074280031F9C0B9114B00221A70114B1B68002B9F
:10743800CCD09847CAE714F04BFCD2E714F048FCCC
:10744800D3E714F045FCD9E714F042FCDFE77846AF
:1074580000F082FCE3E714F03BFCE3E713F07AFF6B
:107468000028B3D014F034FCB0E770471E30002079
:107478002030002008B5064B01221A70054804F098
:1074880067F904F047F900B908BD14F021FCFBE7DF
:107498001E300020CC2D002008B503781B2B00D00F
:1074A80008BD074B1B78002BFAD013F097FF18B9CB
:1074B800044804F051F9F3E714F00AFCF8E700BFB8
:1074C8001E300020CC2D002008B5032300220349DC
:1074D8000969034815F006FD08BD00BF20300020EB
:1074E8007032002008B50378023B082B3FD8DFE84C
:1074F80003F01C05113E3E2C3E3E36001E4B5B68D9
:10750800002B34D0007A002831D01C4A0121117098
:1075180098472CE0184B9B684BB3184A127832B343
:10752800164A00211170984721E0154B1B784BB97A
:10753800114BDB681BB1114A002111709847FFF706
:10754800C3FF14E0FFF796FF11E010220A4B5969B8
:107558000C4815F051FD50B114F0BAFB07E08168F2
:10756800C06809F03DFC18B9054B01221A7008BD26
:1075780014F0AEFBF8E700BF203000201C300020DC
:107588001D3000207032002070B586B00446234AB2
:1075980003AB07CA03C323F8022B120C1A70204E40
:1075A80035460FCC0FC594E8030085E803007369DE
:1075B800002B31D01B491C4815F078FC034610B14C
:1075C800184606B070BD194B009303AB154A16490F
:1075D800174815F027FC03460028F1D1154817F085
:1075E800B3F80146124815F049FC03460028E7D1D4
:1075F800114817F06BFA03460028E1D10E4817F03E
:107608009BFA01460A4815F039FC03460028D7D1F1
:10761800FFF75AFF0346D3E70723D1E7BC2E040040
:107628002030002038300020A4330020ED74020000
:1076380070320020583000202032002008B5064B58
:107648001B683BB112F056F8002803DB024B1B689D
:107658009847F7E708BD00BFE433002010B50C4693
:10766800144B1860144A012114481AF0AFFEA0B94F
:10767800610CE00341F26F7200238B4208BF824223
:1076880010D24FF47A7200231AF0F0FE014600225D
:107698000B481AF0B1FE38B910BD0A4A4A2114F055
:1076A80025FBE5E70521F2E7064A4B2114F01EFB0E
:1076B800F2E700BFE433002045760200C82E04003C
:1076C800E8330020CC2E040008B5104B1B6873B1BA
:1076D8004FF0A042D2F804350D4909684B40C2F872
:1076E80004350A4A1368013B136023B108BD002022
:1076F80014F0EEFAECE707481AF09CFE064B1A68FD
:107708004FF0A043C3F80425F0E700BF0834002079
:107718000C340020103400203034002039B9012303
:1077280003FA00F04FF0A043C3F80805704701239F
:1077380003FA00F04FF0A043C3F80C05704721B9D5
:107748004FF0A043C3F8080570474FF0A043C3F8B3
:107758000C05704712B11346132900D8704770B54D
:10776800144A10605B00013B134A13604FF0A043BA
:10777800D3F80425114B1A6000264D0CCC034FF4A6
:107788007A72002314F5FA7045F100011AF06EFEC2
:10779800324601460A481AF02FFE48B94FF0A04277
:1077A800D2F804350349096823EA0103C2F804350D
:1077B80070BD00BF0C340020083400203034002095
:1077C8001034002008B504481AF034FE0021034B99
:1077D8001868FFF7B4FF08BD103400200C340020EF
:1077E80008B511230BE04FF0A04103F5E072032028
:1077F80041F8220001229A40C1F808250133142BD0
:10780800F1D9054A012105481AF0E0FD00B908BD83
:1078180014F05EFAFBE700BFD17602001C2F0400CB
:10782800002869D02DE9F043CFB00646334B1B68DA
:1078380013F4804F03D0324B1B68032B31DC2F4BE2
:107848001B6813F4804F03D02D4B1B68032B2ADCD5
:107858004FB0BDE8F083F25C2A490D681009590061
:10786800285C0DAC04F8130002F00F020131AA5C89
:10787800625401330F2BEED90DAA00238DF8543032
:1078880003F1804303F58833D3F8043502921E4A86
:1078980001921E4A009241221D49042006F032F945
:1078A800CDE70023E6E71B4BD3F80435B288F1880F
:1078B800307A747AB57AF77A96F80CC096F80DE0B3
:1078C80096F80E8096F80F90CDF82C90CDF8288079
:1078D800CDF824E0CDF820C00797069505940490CC
:1078E80003910292326801920B4A0092462208499B
:1078F800042006F007F9ABE7704700BF482E0020C8
:10790800442E00204C2E0020742F0400882F0400E1
:10791800622F040000100140902F040072DF7047AE
:1079280073DF704774DF70472DE9F047A2B0074650
:1079380088469146314C0026C4F80660E6813049F5
:107948000B78C3EB43102F4D054425602E4A0244A3
:10795800A2601F22A280A281013303F001030B70F1
:107968004FF03C0A5246314613A81AF0F4FE06239B
:107978008DF84F30ADF8487001238DF84A30ADF8D6
:107988005C3012AA1892ADF83C70ADF84090CDF872
:1079980044800DEB0A021D928DF87830524631462C
:1079A80068461AF0D8FE02238DF80030221D2946B9
:1079B80013A813F0FCFA90B9104B03F10C02996864
:1079C800684613F0F4FA68B9104A0C491048FFF7F2
:1079D800A5FF082809D070B922B0BDE8F08714F0D7
:1079E80077F9E9E714F074F9EEE70022034908484B
:1079F800FFF794FFEFE714F06BF9EDE77834002018
:107A0800343400203834002088340020DC2D002055
:107A1800D82D002088B1B0F5202F06D2094AA2FB44
:107A28000023DB0803D1012302E04FF6FF739BB26A
:107A3800054A9381044B99607047034B00229A8151
:107A4800F8E700BFCDCCCCCCDC2D002008B5012157
:107A5800054B1878FFF764FF18B9002004F058FDAB
:107A680008BD14F035F9F8E7D82D002008B5044B07
:107A78001878FFF757FF00B908BD14F029F9FBE79C
:107A8800D82D002076DF70477ADF70477CDF70479B
:107A980008B514F01DF908BD08B503F061FE08BD6E
:107AA80000B583B0037823B1012B0BD003B05DF888
:107AB80004FB3B214088FFF7E5FF0028F6D014F0CF
:107AC80007F9F3E7094B1B6813F4804FEED0084B16
:107AD8001B68032BEADD074BD3F80435064A0092EE
:107AE80068220649042006F00DF8DFE7482E00203A
:107AF800442E0020001001404C30040032300400B5
:107B080000B583B013F026FC70B902A9002341F830
:107B1800043D012013F056FB48B901A813F0A4FB5B
:107B280040B903B05DF804FB14F0D2F8EDE714F0A7
:107B3800CFF8F2E714F0CCF8F3E7000000B585B011
:107B48009DF80C30012262F3030362F3071304A8C3
:107B580000F8043D1D220F49FFF798FF98B900234C
:107B6800ADF808307823ADF80430C823ADF80630F6
:107B78004FF4C873ADF80A3001A8FFF785FF28B99C
:107B880005B05DF804FB14F0A3F8E8E714F0A0F8DA
:107B9800F6E700BFD02F040000B58BB00023ADF886
:107BA80008307822ADF80420C822ADF806204FF43A
:107BB800C872ADF80A200693079301AB039340F609
:107BC800CD4304934FF48033059303238DF8183085
:107BD800064B0893064B099303A813F0A3FD10B9AD
:107BE8000BB05DF804FB14F073F8F9E7A97A02000A
:107BF800997A02000620704700B587B041F2010368
:107C0800984247D020D944F20103984258D044F210
:107C1800020398426FD1464B1B6813F4804F1ED065
:107C2800444B1B68002B1ADD434BD3F804351088EE
:107C38000390526802920191404A00926C22404996
:107C4800012005F05FFF0AE0012854D1384B1B687A
:107C580013F4804F03D0374B1B68002B0DDC4FF01B
:107C6800A0434FF4F012C3F81825C3F80C25EFF31E
:107C7800108372B64DF6AD6C53E02F4BD3F8043534
:107C8800029201912F4A009260222D49012005F0AD
:107C980039FFE4E7264B1B6813F4804FDFD0254BF0
:107CA8001B68002BDBDD244BD3F8043502920191CD
:107CB800254A009263222249012005F023FFCEE7DE
:107CC8001B4B1B6813F4804FC9D01A4B1B68002B41
:107CD800C5DD194BD3F8043510680490506803903B
:107CE800029192680192194A009277221449012060
:107CF80005F008FFB3E70E4B1B6813F4804FAED0B6
:107D08000C4B1B68002BAADD0B4BD3F804350191F3
:107D18000F4A00927B220A49012005F0F3FE9EE7F4
:107D280030BF0C4B1B78002BFAD107B05DF804FB71
:107D3800482E0020442E0020001001400C31040081
:107D4800BA300400CC300400E83004002C310400C0
:107D580050310400F42D002000B583B00023ADF8A5
:107D68000030054B01936A46014644F20200FFF7D2
:107D780043FF03B05DF804FBF429040070B50D4619
:107D88000024012602E000260134E4B2012C17D8B1
:107D9800104B03EB45031B5D002BF5D00D4B03EB9C
:107DA80045031A5D013AD2B21A551B5D002BEAD180
:107DB800094B53F825301B68DB6928469847E3E7E9
:107DC80006B970BD044B53F825300221586814F0E9
:107DD800E1FBF6E7E4340020C83400202DE9F04741
:107DE80007460C461646056895F8200014F084FAF4
:107DF8004EB3B046A9698E4238D204EB44029300D0
:107E08002B445A68914202D00AB1964242D37B6809
:107E18001B79394AFF21D15400234246214678680C
:107E280014F06AFB630023449F002F44387A14F04F
:107E380049FA787A14F046FA04EB4404A3001D4486
:107E48006E60BDE8F087630023444FEA8308A844C6
:107E580098F8090014F050FA98F8080014F032FA6B
:107E68007B681B79244AFF21D154E5E78EB2630071
:107E780023444FEA8308A84498F8080014F03CFA11
:107E880098F8090014F01EFA7B681B791A4AFF213A
:107E9800D154D1E700230321786814F02DFB95F81D
:107EA80020A07B681B6803F5A67904EB44029300C5
:107EB8002B449B7AC3B104EB44029300E85814F0B6
:107EC8005BF802464946504614F0D8F995F8200068
:107ED80014F0F8F97B681B79074AD4547B681A793F
:107EE800064B43F8228097E704EB44029300E858D6
:107EF80014F032F80246E5E7DC340020F0340020C4
:107F08002DE9F04782B0056895F82140002C40F033
:107F180098808946984617460C4606464B005918DD
:107F28008A002A440021516082F80A8003228DF8D1
:107F3800042002684B4499000A44937AB3FA83F305
:107F48005B098DF8053001238DF8063001A9384604
:107F580013F05AFF8246002879D109EB49029300B1
:107F6800EF50B8F1000F16D0012202FA07F74FF0D0
:107F7800A043C3F80C750027012F14D809EB490357
:107F8800980038440830284414F026F9002861D1B4
:107F98000137FFB2F0E7012202FA07F74FF0A043DA
:107FA800C3F80875E7E7630023449F002F44387A35
:107FB80014F0A2F9787A14F09FF9B8F1000F30D0D4
:107FC80004EB44029300E85813F0D6FF0746B8F1D3
:107FD800000F2ED004EB44029300E85813F0BCFFC6
:107FE80080467368196804F15000630023449A00BE
:107FF80015443A4601EB8001287A14F03FF973687A
:108008001968424601F5A471687A14F037F901231A
:10801800EB7273681A79114B03EB420300221A556D
:1080280011E004EB44029300E85813F095FF07466B
:10803800CDE704EB44029300E85813F09DFF804617
:10804800CFE74FF0080A504602B0BDE8F0874FF07E
:10805800040AF8E74FF0040AF5E700BFE43400200B
:10806800F8B50746066896F8200014F0E5F80024ED
:1080780025E00135EDB2012D11D804EB440293003F
:1080880033442B44187AFF28F3D014F0D5F804EBC6
:108098004402930033442B44FF221A72E9E7254631
:1080A80004EB44029300F058B0F1FF3F0BD105EB0D
:1080B8004505AB0033440022DA720134E4B2012CE6
:1080C8000AD80025D7E713F001FF04EB4402930018
:1080D8004FF0FF32F250EAE7786814F0E1F9F8BDA2
:1080E80041680A790D4B9B5CDBB2FF2B12D0FE2B4B
:1080F80012D0096803F5A87351F82330084951F8DC
:108108002210994201D001207047044BFF21995455
:10811800002070470020704701207047DC340020A1
:10812800F0340020F8B5036893F82140022C2CD1D4
:1081380017460E46054601EB410294001C4462684E
:10814800974206D1DB6913B342681079984700203B
:108158001CE0FFF7C5FFE0B96B681B790F4AFE21E9
:10816800D1543A4631462846FFF738FE2B68DB697A
:108178008BB16B681A790A4B03EB420302219955BC
:10818800686814F0F0F9002000E00820F8BD00202D
:10819800FCE71120FAE70020F8E700BFDC340020F4
:1081A800E43400200368188B7047000070B505465A
:1081B8000E461446FFF7F6FF04FB00F0044AA2FB44
:1081C8000032C2F34F1231462846FFF7ABFF70BDAD
:1081D8001F85EB512DE9F04385B0002900F0B980E7
:1081E8000E46056895F82130002B40F0B5801746FB
:1081F800044614F0EFF910B1852840F0B38013F06D
:10820800F9FD68B1594B1B6803F0F003302B0ED011
:10821800574B01221A70FF2385F8203000231AE0FB
:1082280013F0AAFD0028EDD04FF0030996E0504B5B
:1082380000221A70EFE75A00D1188800284400215C
:10824800C172FF21017241721A4491004FF0FF324E
:108258006A500133DBB2012BEDD905F1200013F090
:10826800BBFF10B94FF000080DE02046FFF7F8FEFD
:108278004FF0040972E02046FFF7F2FE6EE008F1C5
:1082880001085FFA88F8B8F1010F14D856F82820C9
:10829800B2F1FF3FF3D006EB08031B7A41462046B4
:1082A800FFF72EFE81460028E5D1002241462046F0
:1082B800FFF738FFE3E73269002301E05208013392
:1082C800B2F5805F01D3082BF8D9294A12780AB190
:1082D80003B901238DF8083000238DF809308DF893
:1082E8000A3007238DF80B30606803790393214A1D
:1082F80002A914F03FF8814638BB636836691B68E9
:10830800D3F810353601DBB2DE40AE61606814F098
:10831800EFF84FF00108CDF800800423324602211F
:10832800606814F007F90221606814F033F9EF610E
:1083380063681B79104A42F82340104AFF21D15440
:1083480085F821804FF0000908E02046FFF788FEF5
:1083580004E04FF00B0901E04FF00809484605B06A
:10836800BDE8F0834FF00409F8E700BFE80F00F01C
:1083780004350020857D0200C8340020DC3400204C
:108388002DE9F04105460668002400E00134012C7F
:1083980024D86B681A79194B03EB420300221A554B
:1083A80004EB440293003344DB7A002BEED02A68B6
:1083B80063001819810008460A44917A074606EBBB
:1083C8000008B1FA81F14909305813F0E5FDF05978
:1083D80013F0B0FD0023C8F80430D7E76B681B79A9
:1083E800074AFF21D154686814F082F8686814F0CD
:1083F8003BF8022386F82130BDE8F081E434002000
:10840800DC34002010B40346044C006859689A68AC
:10841800DB680FC45DF8044B704700BF08350020C7
:108428000B4B0C4A92E8030083E8030003F10802AF
:10843800094903C982E80300DA79042161F30712C4
:10844800DA711A7A022161F387121A72704700BF33
:108458000835002060000010A40000100048704794
:1084680008350020002308E0074901EBC30000227B
:108478004280426001F8332001331F2BF4D9034BAB
:1084880000221A60704700BF1835002018360020F7
:1084980030B405460F4B1B6800240AE01F230E4A20
:1084A80012F83300A0B102EBC3025288AA4207D0E7
:1084B80001341F2C0BD85A1E002BEFD01346EEE7C1
:1084C800054A02EBC30252688A42F1D100E000205B
:1084D80030BC7047183600201835002030B40A4ADE
:1084E80013680A4C04EBC30568806960012104F82D
:1084F80033100B441360202B01D030BC7047134657
:1085080000221A60F9E700BF18360020183500204D
:10851800C0F30C038B4202D3C91A08447047C91A26
:108528000844A0F500507047C37D002B42D08378E3
:108538000A7802F0800203F07F0313430B7002787D
:108548000B7803F07F0343EAC2130B700378002B08
:1085580041D030B44378082B14BF002201224B7855
:1085680003F07F0343EAC2134B70858803F080034E
:10857800C5F3861423434B708A7802F0030242EA5B
:108588008502D2B28A70857902F0FC02C5F3C10473
:1085980022438A70CB7803F01F0343EA4513DBB20A
:1085A800CB70C27903F0E00302F01F021343CB70D3
:1085B80030BC704783780A7802F0BF029B0103F051
:1085C800400313430B70C27803F0C00302F03F026C
:1085D80013430B70B3E770470023032B22D810B462
:1085E80002E00133032B19D8C3EBC30214010E4A6E
:1085F800224492F84820012AF3D10B4A2244948A53
:10860800C2899442EDD1C3EBC3021401064A224445
:1086180092888A42E5D10448204400E000205DF8B1
:10862800044B70470020704788360020002300E084
:108638000133032B14D8C3EBC3021101094A0A44BE
:1086480092F84820022AF3D1064A0A44918A828A7B
:108658009142EDD1C3EBC3031A010248104470479D
:10866800002070478836002008B108207047042091
:108678007047000038B505460C46CB695B78C37077
:10868800CB691B7883F001038370CB694362087B55
:10869800022814D0FFF7E8FF6870E27A32B9A18A9D
:1086A800C0F10F03994201DC082833D0A18A0346A0
:1086B800C0F10F00814207DC52B3012205E0164BDE
:1086C800987DFFF7D1FFE7E701222A7062B1A28AFD
:1086D80013440B33114A82FB0312DB17C3EB62030B
:1086E800013BEB710023AB710023EB7505F10C0224
:1086F80094E8030082E80300A2692A622289AA8218
:10870800A27AAA75226AAA6285F82C30184638BD62
:108718000022DAE70720FAE770360020ABAAAA2A77
:1087280030B403460C460978817000214162A16883
:108738000B2903D8217B09B3012100E0012119701D
:108748000020587029B1A1680731C9080139D971C9
:1087580098710121D97503F10C0504F1100103C9C1
:1087680085E80300E1899982A1691962217F9975D9
:10877800617F83F82C109A6230BC70470021DEE7D5
:108788000021164B1B688B4226D90023144A02EBA2
:10879800C10252689A421DD910B4114A52F83120C8
:1087A80002EBC30412F8332082420DD001330C4A85
:1087B80002EBC10252689A42EFD80131074B1B689D
:1087C8008B4205D90023F2E760685DF8044B7047D7
:1087D8000020FAE70131D4E7002070471C3600205A
:1087E8002036002070B58CB006460D4614462C2263
:1087F800002101A819F0AFFF0F238DF80430ADF860
:1088080008604FF0000365F300038DF80A308DF817
:108818000B4001A801F0E6F80CB070BD30B58DB082
:1088280005460C462C22002101A819F094FF1023BC
:108838008DF8043002958DF80C4001A801F0D2F8AB
:108848000DB030BD00B58DB048B913F1020F06D098
:1088580001228DF80420029301A801F0C3F8034B0C
:10886800186804F07BF80DB05DF804FB283600208A
:108878002DE9F041054688460378BBB10D4B1C68CD
:10888800621C1A6004F00704AB8A0B4F07EBC4069E
:108898007380A988A869FFF73BFE7060EB6903F055
:1088A8000103737007F83480BDE8F0817846FFF75C
:1088B80053FAE3E76C3600202C36002070B50646E4
:1088C80003784BB1B58A347F04F00104B188B069EC
:1088D800FFF71EFE002304E07846FFF73DFAF1E7B4
:1088E8000133072B15D80C4A02EBC30252688242A7
:1088F800F6D1094A02EBC3025288AA42F0D1064ACD
:1089080002EBC3025278A242EAD1034800EBC3004B
:1089180000E0002070BD00BF2C360020F8B51546D9
:108928001C460E684A68D1F808C0CF68E660226124
:10893800C4F814C0A7610E694A69E6612262037827
:10894800DB092370E27D32B3037803F07F03A37061
:108958000023637023789BB143789B0103F4FE5393
:10896800827843EA9203A3808378DB0003F018033C
:10897800C27843EA5213A371C37803F01F03E3716B
:10898800002363622B78052B1AD82B780E4AD35C08
:1089980084F82C30F8BD0278C2F38012A2700278F5
:1089A80002F03F02E27043B190F90130002B02DB84
:1089B80004236370CEE70823FBE704236370C9E749
:1089C8007846FFF7C9F9E0E76C31040070B50C464A
:1089D8001E460378B3B104252A44A26000F10C03B3
:1089E8002360836A636090F82C30237300236373D9
:1089F800204604F019FB024610B923691D4435606E
:108A0800104670BD0125E7E72DE9F0418EB00D460F
:108A180016461C46804600282DD0002D2FD0002C4D
:108A280031D0636A0233059304F10C00A378002B5C
:108A38002DD00121627801AF3B46082A14BF0022DD
:108A4800012204F0D0F80697CDF81C80B2B2ADF838
:108A580020200B9515440C9563788DF83430237BD2
:108A6800022B16D00023ADF8283005A804F0B3F87F
:108A78000EB0BDE8F0817846FFF76EF9CDE778468D
:108A8800FFF76AF9CBE77846FFF766F9C9E70221ED
:108A9800D0E723692BB1236909931023ADF8283057
:108AA800E3E77846FFF758F9F5E72DE9F04186B096
:108AB80004460D46C37D002B3CD0082605FB06F86E
:108AC800E379AB4238D0A5716B46324601A92046FE
:108AD800FFF77CFF074648BB4DB994F8533033B9CC
:108AE800A369C3F30C03A380012384F85330E37D07
:108AF8007BB994F8523063B91DBBB4F84A10627858
:108B080023468A1AE16E0846FFF77EFF012384F8A0
:108B1800523005992046FFF707FDE16E3246414481
:108B2800009819F0EFFD01A804F09CFA384606B049
:108B3800BDE8F0810C26C1E7B4F84A60A6EB080648
:108B4800C1E77846FFF708F9D7E770B505460E463E
:108B580009B100230B6095F85040002104E0631C24
:108B680085F850300134E4B2EB79A34210D3EA6CB3
:108B78000123A3401A42F5D121462846FFF795FF65
:108B8800014628B9002EEAD0336801333360E6E79E
:108B9800084670BDF0B587B045781544C37DDBB194
:108BA8000B239D4221D816460F4604466B462A469B
:108BB80001A9FFF70BFF0546C0B905992046FFF745
:108BC800B3FCE37D53B132463946009819F09AFD5B
:108BD80001A804F047FA09E00F23E2E723463246EA
:108BE80000993846FFF710FFF2E70925284607B035
:108BF800F0BD000010B5044690F84830012B0CD1A8
:108C080003F098F8237B012B0BD0094BD96801445A
:108C180004F1300003F056F810BD7846FFF79CF8D1
:108C2800EEE7A37D024AD168126902FB0311EEE761
:108C38007036002030B583B0002403E02846FFF7E3
:108C4800D9FF0134032C1AD8C4EBC4031A010D4B05
:108C5800134493F84830012BF3D102A9002341F8BB
:108C6800043DC4EBC4021301064D1D442846FFF71A
:108C78006CFF0428E2D0019B002BE2D0DEE703B0B2
:108C880030BD00BF8836002038B5044690F848301B
:108C9800022B02D07846FFF75FF8054B1D6803F0FA
:108CA80049F8411904F1300003F00CF838BD00BF51
:108CB8007036002038B5044690F84830022B02D0B0
:108CC8007846FFF749F8084B5D7D5A689B6803FBB7
:108CD800052503F02FF8411904F1500002F0F2FFC6
:108CE800012384F8683038BD7036002038B5044652
:108CF800C06E08F064F804F13005284602F0FFFF62
:108D080070B994F84830022B0ED07022002120460A
:108D180019F021FD002084F8480002F03DF838BD24
:108D2800284602F0B7FFECE704F15005284602F0A8
:108D3800E6FF0028E9D0284602F0ACFFE5E710B5C9
:108D480004460121FFF794FD2046FFF7CFFF10BD31
:108D580010B58CB0044690F84830012B02D0784604
:108D6800FEF7FAFF01238DF80430636D029301A822
:108D780000F038FE2046FFF7B9FF0CB010BD000028
:108D880030B585B00D460446A8B100212046FFF74E
:108D98006FFD2946606DFFF741FD2046FFF7A6FFEE
:108DA8000F4B1B6813F0040F03D00E4B1B68032BEB
:108DB80005DC05B030BD7846FEF7CEFFE5E70A4B87
:108DC800D3F8043594F8482002950192074A009296
:108DD80040F2EF120649042004F094FEE9E700BFD0
:108DE800482E0020442E002000100140BC31040011
:108DF800B031040008B508460021FFF7C1FF08BDDF
:108E080008B5037B012B02D0FFF7A2FF08BD0121A3
:108E1800FFF7B6FFFAE7000008B590F8513013B92C
:108E2800FFF7EEFF08BD013B80F85130002380F8C2
:108E38005030024B186803F091FDF3E72836002004
:108E480010B50C4691F84830012B02D07846FEF751
:108E580083FF2046FFF7E0FF10BD0000062900D081
:108E6800704770B582B003460178890101F4FE515C
:108E780040789D78DC78240444EA05641D7944EA46
:108E880005245B791C4341EA90011046FFF7A4FBD7
:108E98000546B8B1C66C2643C66444B3037853B3D9
:108EA800EB795A1C01239340013B9E4227D00021B5
:108EB80085F850102846FFF748FE2846FFF79AFE27
:108EC80002B070BD104B1B6813F0040FF8D00F4BA5
:108ED8001B68012BF4DD0E4BD3F804350D4A0092C4
:108EE80040F2A7520C49022004F00CFEE8E70321E7
:108EF800FFF746FFE4E77846FEF72EFFD0E728465F
:108F0800FFF726FFDCE700BF482E0020442E002094
:108F180000100140E0310400B03104002DE9F043B5
:108F280089B080460F4614461E4695782DB32846CC
:108F3800FFF726FC8146E8B18DF80050236A0693B6
:108F4800A38AADF80E3004AB04F10C0292E80300DA
:108F580083E80300A37D8DF81C30CDF804800297C8
:108F680023788DF80C3094F82C308DF81D3031466C
:108F78006846C84709B0BDE8F083FFF76FFFF9E717
:108F88002DE9F04706460F4690464B1EDBB2012BF3
:108F98000FD8B8F5C07F10D80024032C1AD8C4EB1A
:108FA800C4031A01334B134493F848304BB10134CE
:108FB800F3E77846FEF7D0FEEBE77846FEF7CCFEFF
:108FC800EAE7DFF8B0A015465544404607F0F3FE3F
:108FD800E86600E00025002D32D0EB6E002B46D06D
:108FE80033462A4606F13001D3F800E0D3F804C02E
:108FF8009C68D868C2F800E0C2F804C09460D060E9
:10900800103310328B42EFD10023EB64A5F84A806D
:10901800B188B069FFF77CFAA861012F13D06FF00F
:109028000103AB62002385F86830134BAB652D66EE
:10903800124BAB632D64012001F0AEFE85F8487039
:109048002846BDE8F0870E4B1B7D85F8513000237C
:1090580085F8523085F8533085F85030B36A6B651F
:109068006FF00103AB62074BAB632D64E3E70025A8
:10907800E6E700BF8836002031990200FD8D020026
:1090880070360020498E0200F0B5C7B04678164405
:10909800C37D2BB14FF48073B34279D3002303E02F
:1090A8004FF4C073F8E70133032B19D8C3EBC3049B
:1090B80025013B4C2C4494F84840012CF3D1384C02
:1090C8002C44A58A848AA542EDD1C3EBC3042501AB
:1090D800334C2C44E589C489A542E4D1082458E0DE
:1090E80014460D4632460121FFF74AFF064600287E
:1090F80052D022462946C06E19F004FB46A9002327
:1091080041F8043D3046FFF720FD044608B1042825
:109118003AD1459B7BB9234B1C6814F0040438D022
:10912800214B1B68032B39DDB6F84A70802F28BF06
:109138008027002313E03046FFF75CFDEBE7F26E73
:10914800D25C1A490C6810095900255C04A800F87B
:10915800135002F00F020131A25C42540133BB42AA
:10916800EDD304AA002402F81740114BD3F80435B4
:109178000292104A0192104A009240F2D1420F49DD
:10918800042004F0BFFC04E03046FFF7AFFD00E028
:109198000924204647B0F0BD0424FAE70024F8E784
:1091A80088360020482E0020442E00204C2E002017
:1091B8000010014010320400882F0400B031040070
:1091C80000B585B000238DF80F3098B103460846E6
:1091D80002330B600DF10F0103F001FD9DF80F3014
:1091E80043B10D4B1B6813F0040F03D00B4B1B68E6
:1091F800032B04DC9DF80F0005B05DF804FB084B59
:10920800D3F80435074A009240F2A63206490420F2
:1092180004F078FCEEE700BF482E0020442E002022
:109228000010014020320400B03104002DE9F04361
:109238008FB004460E4615461F46D0F8189003789E
:1092480023B181884846FFF763F9A06104F10C0057
:10925800A378002B3AD0012162780DF12808434603
:10926800082A14BF0022012203F0BDFCC4F818909C
:10927800CDF8088003966378EA1A92B2ADF8102008
:109288003244089207978DF824300023ADF818303F
:10929800237B022B1CD0A3786BB3237B022B1BD020
:1092A8002546002345F8243F2A46E178206A0EF037
:1092B8004FFB606A98B101A9FFF782FF00283AD1F5
:1092C8002A46E178206A0EF043FBF2E70221C3E761
:1092D8001023ADF81830DEE723690593E0E7237B18
:1092E800022B2CD104F10C01E0890EF0DFFB0028E1
:1092F800D3D1052020E000236362237B012B0DD00E
:109308002146002341F8243FA08A0EF03EFB01A924
:10931800606AFFF755FFA0B100200DE004F12401B9
:10932800E0890EF032FB01A9606AFFF749FF0028C7
:10933800E6D0002000E000200FB0BDE8F083052053
:10934800FAE70520F8E7000070B5F0B00D461446BE
:109358001E4610AB0A4601462046FFF767FFA0B13C
:109368001F4B1B6813F0040F37D01E4B1B68052BCF
:1093780033DD1D4BD3F804351C4A009240F21962C4
:109388001B49062004F0BEFB27E003AB01228DF841
:109398000C20A28AADF80E20002204928DF8142029
:1093A80010AA06926278AD1AADF81C5008AA93E884
:1093B800030082E803000AAB04F10C0292E8030000
:1093C80083E80300A37D8DF83830236A0C93636A21
:1093D8000D930F9605A800F005FB70B070BD00BF97
:1093E800482E0020442E002000100140583204006E
:1093F800B031040010B5D47D14B9FFF7A5FF10BD36
:10940800FFF78CFDFBE770B504460D461646808ACB
:1094180001F0E0FF01281AD1237BD3B1022B0BD036
:1094280094F91630002B16DB237853B932462946B7
:109438002046FFF7AFFB0BE02369002BF0D110208B
:1094480006E0324629462046FFF71EFE00E01020BF
:1094580070BD1020FCE70720FAE7000010B54FF4B4
:10946800E0720021134819F076F905F0E1FD0024B7
:10947800114B1C6040222146104819F06CF9104B22
:10948800104A1A60104A5A604CF250329A600F49DA
:10949800D9601A6104221A759C7508225A750C48FD
:1094A80003F03CFA0B4B18600B4B1C600B4805F0A3
:1094B800BDFE10BD883600206C3600202C360020FA
:1094C8007036002080969800F049020020A107001D
:1094D80085960200283600201C3600204D880200A0
:1094E80008B505F01DFD08BDC0B110B58CB0044627
:1094F8000369B3B1C369B3B18369B3B101466846BF
:10950800FFF7B8F8034610B118460CB010BDA28A90
:1095180021696846FFF777FF0346F5E70E231846EB
:1095280070470E23F0E70E23EEE70E23ECE7D0B1E9
:1095380010B58CB004464068B8B1A269BAB1207CB5
:10954800022816D0B8B194F90020002A15DB0A4683
:1095580021466846FFF7E4F8A26861686846FFF7A5
:1095680052FF0CB010BD0E2070470E20F9E70E20F8
:10957800F7E71020F5E71020F3E70720F1E70000F0
:10958800037B012B01D00020704730B58DB001ACB2
:1095980000230293CDF80B308288C2F386158DF82C
:1095A800045092008DF805200A0E8DF806200A0C4A
:1095B8008DF807200A0A8DF808208DF80910062270
:1095C800069201228DF82020828AADF82220099384
:1095D8008DF810300594026A0A928DF81C30C38900
:1095E800ADF81E3090F82C308DF82D30837D43B9BE
:1095F8008DF82C306FF0010104A8FFF798FF0DB02B
:1096080030BD024B5B7D8DF82C30F3E770360020BF
:1096180038B590F84830022B00D038BD90F8683043
:10962800022BFAD10446C16CFFF7AAFF0028F4D137
:10963800002384F86830E56C237853B1E3795A1C29
:1096480001239340013B9D42E7D12046FFF777FB7A
:10965800E3E77846FEF780FBF0E7000010B500244A
:1096680007E0C4EBC402130103481844FFF7D0FF16
:109678000134032CF5D910BD8836002008B5FFF752
:10968800D9FAFFF7EBFF012008BD00002DE9F041F2
:1096980082B007460E46144698461046FEF7C6FFA7
:1096A800054620B1A28883889A4210D312D8204652
:1096B800FFF704F9B8B103784BB123787BB1E179AE
:1096C8004B1C0121994001392046FFF759FF02B090
:1096D800BDE8F0810521FFF753FB0025E7E7784651
:1096E800FEF73AFBEBE7002D56D05F4B1B6813F0F3
:1096F800040F04D05D4B1B68032B00F385802846BC
:10970800FFF7C2FA2B7B012B00F08C80EA6CA17961
:1097180001238B401A42DAD11343EB64A279EB7927
:109728009A4200F08880E37D002B00F08F800823A8
:10973800B34240F08D80EB6EA079E27D002A00F004
:109748008C8008243246394604FB003018F0DAFFD2
:10975800EC6C2B78002B00F08280EB795A1C0123EB
:109768009340013B9C42B2D1022385F86830E96CF2
:109778002846FFF705FF044643462A46B5F84A102F
:10978800E86EFFF737FE002CA1D1002385F868307A
:109798002846FFF7D4FA9AE7E279531CE17DE9B14C
:1097A800082202FB03F2D9B14FF4807393421AD214
:1097B8002D4B1B6813F0040F89D02C4B1B68002B12
:1097C80085DD2B4BD3F8043501922A4A009240F2EA
:1097D80036322949012004F095F978E70C22E0E7B0
:1097E8004FF4C073E2E702212046FFF7C9FB0546A4
:1097F80000287FF47AAF00212046FFF7C1FE02213E
:109808000020FFF70BF862E7194BD3F80435A2796B
:1098180001921A4A009240F251321749042004F08A
:1098280071F96CE795F86830002B7FF46FAF284624
:10983800FFF740FA6AE79BB2E27D2AB1082203FBF0
:109848000263A5F84A3076E70C22F8E70C236FE7A5
:1098580004212846FFF794FA39E70C2472E7784682
:10986800FEF77AFA79E700BF482E0020442E002040
:109878000010014034320400B031040048320400C2
:109888002DE9F0418EB000284AD00546002A49D07B
:10989800984614460E4600220C920D920CA9608838
:1098A8000EF004F920B9002738460EB0BDE8F08163
:1098B8002269E168208905F067FB08B10027F3E712
:1098C8002269E168208905F033FB0746C8B96B4671
:1098D800424621462846FFF721F803AB0EAA12E9B3
:1098E800030083E8030002F0A1FF9DF8003083B174
:1098F80043466A46311F281DFFF7C8FE02F0DAFF0B
:10990800D2E72169002201F001012089FEF76AFFF0
:10991800CAE743466A46711E681CFFF76BFDEDE710
:109928000E27C1E70E27BFE710B50C4691F848305F
:10993800022B0BD1022384F86830E16C2046FFF734
:109948001FFE10B9002384F8683010BD7846FEF772
:1099580003FAEFE7F8B500B30546164B1F68F7B9E9
:109968000E463C46B4420ED205EBC4035B68CBB14D
:1099780015F8340010F0800F16D1B8B1FEF700FFCB
:10998800B0B90134EEE70C4B43F8375003EBC7038B
:109998005E607B1C074A136002E00E2700E0042784
:1099A8003846F8BD0E27FBE70B27F9E70F27F7E73F
:1099B8000F27F5E71C36002020360020084B1968D1
:1099C80061B110B501E021463CB10C680B79002B60
:1099D800F9D0034803F0FFFFF5E710BD704700BF5B
:1099E8004C38002038B5054630B1104B1C68ACB176
:1099F8000F4B01221A7004E07846FEF7ADF9F4E740
:109A080024683CB12379002BFAD154F8043C284649
:109A18009847F5E7064B1B78022B00D038BDFFF7B7
:109A2800CDFF034B00221A70F8E700BF4C38002026
:109A38004838002010B5044630B100232372211D98
:109A4800034803F09DFF10BD7846FEF785F9F4E75B
:109A58004C38002010B5044650B10A4B1B78013B26
:109A6800DBB2012B08D9211D074803F0B4FF10BD54
:109A78007846FEF771F9F0E7024B02221A700123CB
:109A88002372F4E7483800204C3800200A8883689D
:109A98009B5A07339BB223F0030313449BB20288FB
:109AA800043A934200D900230B80704710B582B066
:109AB80004468368CB1A02A921F8023DFFF7E6FFA6
:109AC800BDF80630A068184402B010BD00880438FC
:109AD80080B2704743888268D018D15201238370BE
:109AE80070478268002393704380838070470731F2
:109AF80089B221F0030189B2428883889A4204D24C
:109B08009B1A99421CDC0020704710B59A420FD965
:109B18000488A41AA14215D98B4215D3032C03D962
:109B28008368134404229A7000234380184606E091
:109B3800826813449B784BB9FFF7D3FF002010BD10
:109B4800042070470020FAE70420F8E70420F6E72D
:109B580038B504460D468368828813448B4202D088
:109B68007846FEF7F9F80023AB70211D2046FFF771
:109B78008DFFA288A36813449B78042B00D038BDBE
:109B88000023A380FBE710B50C4683684288134482
:109B98008B4202D07846FEF7DFF80023A37010BD91
:109BA80070B5064615460C46002944D0002E46D00E
:109BB800B4F1005F08D94FF08053D3F80C3103F5A6
:109BC8000023B4EB832F0ED3B4F5000F08D94FF060
:109BD8008053D3F80C3103F50053B4EB832F02D331
:109BE8007846FEF7B9F86B1E2344B3F1005F08D935
:109BF8004FF08052D2F80C2102F50022B3EB822FED
:109C08000ED3B3F5000F08D94FF08052D2F80C21CB
:109C180002F50052B3EB822F02D37846FEF79CF888
:109C2800042D10D9358000237380B380B460043DBF
:109C38002580A37070BD7846FEF78EF8B6E77846A3
:109C4800FEF78AF8B4E77846FEF786F8EAE738B50B
:109C58000446A0B16288A36813449B78012B12D0F4
:109C6800EFF3108572B6A388A16819448B78032B8B
:109C78000DD02046FFF735FF05B962B638BD7846E6
:109C8800FEF76AF8E6E77846FEF766F8E8E7204662
:109C9800FFF70CFFA368C31A638000238370EBE708
:109CA8002DE9F0410E4615460446D0B1EEB1628862
:109CB800A36813449B78012B1BD025B32046FFF7DC
:109CC80005FFA84221D3EFF3108872B62946204633
:109CD800FFF70DFF074680B1B8F1000F16D162B645
:109CE80014E07846FEF738F8E0E77846FEF734F8EF
:109CF800DDE77846FEF730F8DFE729462046FFF72C
:109D0800E9FE3060E8E7092700E009273846BDE8A2
:109D1800F081F8B50C4616460546E0B1FCB1A378CB
:109D2800012B20D12388B34221D326B3EFF3108728
:109D380072B626800223A370E9182846FFF7A6FE0C
:109D48006B88AA88934203D0AA68134400229A70A9
:109D580007B962B6F8BD7846FDF7FEFFDEE778463C
:109D6800FDF7FAFFDBE77846FDF7F6FFDAE7784616
:109D7800FDF7F2FFD9E77846FDF7EEFFD6E770B5B5
:109D88000D46044680B19DB1EFF3108672B6A288E5
:109D9800A36813449A78042A0ED09A78022A13D01A
:109DA800032A18D0052013E07846FDF7D5FFEAE727
:109DB8007846FDF7D1FFE7E7211D2046FFF766FE4D
:109DC800A288A3681344E8E703229A702B60002056
:109DD80006B962B670BD7846FDF7BEFF0020F7E70A
:109DE80038B5044680B1EFF3108572B6A088A16833
:109DF80001448B78042B0BD08878022814BF0020EC
:109E0800012005B962B638BD7846FDF7A5FFEAE737
:109E18002046FFF74BFE0146EEE738B5044630B161
:109E2800EFF3108572B6A088A168014407E0784670
:109E3800FDF792FFF4E72046FFF738FE01468878E1
:109E4800C31EDBB2012BF6D9022814BF0020012063
:109E580005B962B638BD70B50C46064678B194B1FE
:109E6800EFF3108572B6A378012B10D0032B13D112
:109E780021463046FFF76CFE05B962B670BD7846DC
:109E8800FDF76AFFEBE77846FDF766FFE8E721464E
:109E98003046FFF778FEEFE77846FDF75DFFEBE722
:109EA80010B5EFF3108472B68388816819448B78F3
:109EB800042B06D08878B0FA80F0400904B962B65D
:109EC80010BDFFF7F3FD0146F4E7000008B5064BA7
:109ED800986800221A605A609A60DA601A615A61BA
:109EE8009A6104F025FE08BD5038002000B585B001
:109EF8000A4BDB6802228DF8002001934FF480534F
:109F08000293074A6946012001F07AF918B1002046
:109F180005B05DF804FB0120FAE700BF50380020C7
:109F28006C38002000B585B00A4B1B6802228DF8FA
:109F3800002001934FF480530293074A6946012099
:109F480001F05EF918B1002005B05DF804FB0120AE
:109F5800FAE700BF703800206C380020164BDA682A
:109F6800137951795B1A03F57F2303F6FF7302EB2C
:109F780003339A4205D002F580520F4BDA60032072
:109F8800704700B585B00D4B1B6801208DF80000A7
:109F980001930B4B0393042302930A4A694601F089
:109FA8002FF918B1002005B05DF804FB024B01221F
:109FB8001A760220F7E700BF5038002070380020DA
:109FC800743800206C38002000B585B00C4BDA6876
:109FD8000C4B1B68043301208DF800000192039399
:109FE80040F6FC730293084A694601F009F928B95A
:109FF8000120034B187605B05DF804FB0020FAE752
:10A0080050380020703800206C38002000B585B02A
:10A018000A4B1B6801208DF800000193084B03933D
:10A0280004230293074A694601F0EAF818B10020B0
:10A0380005B05DF804FB0120FAE700BF7038002086
:10A048005C3800206C38002010B584B0104BDA68FA
:10A058001478104B1B68043301208DF8000001931D
:10A06800039202940C4A694601F0CAF870B9094B88
:10A078001B6804F0FC041C440434054B5C61D9687B
:10A088000A780A441A61012004B010BD0020FBE7D9
:10A0980050380020703800206C38002008B50023A4
:10A0A800092B09D8064A52F82320824201D00133ED
:10A0B800F6E7044A536002E07846FDF74DFE08BD16
:10A0C800843204005038002010B5214BDB6853B1AE
:10A0D8001F4B1B7E5BB91E4B5B68092B15D9784655
:10A0E800FDF73AFE11E07846FDF736FEF0E77846D0
:10A0F800FDF732FEEFE7164B00225A60012C01D023
:10A10800032C23D1124B1B7E03BB114B5A68114BF6
:10A1180053F822309847044602280DD00328EAD085
:10A128000128EBD10A4A536801335360092BE5D95A
:10A138007846FDF711FEE1E7054B1B7E1BB1044B8A
:10A1480002221A70DAE7FFF7C1FED7E710BD00BF99
:10A158005038002084320400104B1B681B685A1EBC
:10A1680012F1030F18D8C3F30B020AB1002070478D
:10A1780010B50B4AD360002313765376012414706C
:10A1880093600848FFF78AFF0749204601F026F840
:10A19800FFF79AFF204610BD002070477038002056
:10A1A80050380020F59E0200B5A1020008B50B78D2
:10A1B800032B06D00B4B1B78012B06D0022B0BD0A0
:10A1C80008BD084B00221A76F4E7064B1B7E002BCD
:10A1D800F6D1FFF779FFF3E70B78032BF0D1FFF700
:10A1E80075FEEDE75038002000B585B0174BDB68E9
:10A1F80018784FF6FF7203F58051184404F0CCFF2D
:10A20800F0B10246114BD9680B780B44984219D02B
:10A218000E4B5B7E93B10E4B01208DF8000001922E
:10A228000393042302930B4A694600F0E9FF58B9E7
:10A238000120064B187605B05DF804FB064BEBE7EA
:10A248000120F8E70120F6E70020F4E75038002065
:10A25800B43404006C380020B034040008B5104B46
:10A26800DB681878002203F58051184404F094FF45
:10A2780008B1012008BD0A4BDA68137951795B1AD5
:10A2880003F57F2303F6FF7302EB03339A4205D0ED
:10A2980002F58052024BDA600320EBE70220E9E77F
:10A2A80050380020F0B585B0544BDE6872793379A8
:10A2B800591E8A421AD006F580510D780D4450492E
:10A2C8000968081D0F7907449B1A03F57F2303F6D5
:10A2D800FF731B0303F580531E446B88013B9BB23D
:10A2E80047F6FE62934260D92C461AE00120434BA0
:10A2F80058767EE07846FDF72FFD15E024F47F645C
:10A3080024F00F0404F5805423781C44A64247D94E
:10A31800A54247D26388013B9BB247F6FE6293424F
:10A3280011D92388002BE5D0238804EB830323F479
:10A338007F6222F00F029342E0D06288B2F5FE4FAE
:10A34800DCD01C46E2E725462FE07846FDF704FD01
:10A3580015E024F47F6424F00F0404F58054237876
:10A368001C44A64220D9A5423BD26388013B9BB23C
:10A3780047F6FE62934211D92388002BE5D0238843
:10A3880004EB830323F47F6222F00F029342E0D0B0
:10A398006288B2F5FE4FDCD01C46E2E7254604E0B1
:10A3A800002502E0002500E00025E5B1144B1968FE
:10A3B8006A8801F58051384604F0EEFE074690B1F0
:10A3C80001200E4B18768DF8000001950D4B039374
:10A3D800042302930C4A694600F012FF58B92C4630
:10A3E800CAE70025E1E7B5FA85F56D09034B5D7607
:10A3F800012005B0F0BD0020FBE700BF5038002069
:10A4080070380020AC3404006C3800202DE9F0418D
:10A4180086B0674B1B692BB1654B5B6933B14FF055
:10A42800000846E07846FDF797FCF5E77846FDF723
:10A4380093FCF4E77846FDF78FFC15E025F47F657B
:10A4480025F00F0505F580552B781D44AE421CD923
:10A45800AC421ED26B88013B9BB247F6FE62934228
:10A4680011D92B88002BE5D02B8805EB830323F427
:10A478007F6222F00F029342E0D06A88B2F5FE4F65
:10A48800DCD01D46E2E72C4600E000241CB1009415
:10A498003FE00024FAE700230093019B002B62D1E0
:10A4A8004FF00108002C7DD0628847F6FF739A426E
:10A4B80078D0B8F1000F79D13D4B5A6922F47F6703
:10A4C80027F00F07BF1A07F580571C69DE68337934
:10A4D80072799B1A03F57F2303F6FF731B0303F5B9
:10A4E80080531E44002301936388013B9BB247F6C7
:10A4F800FE629342CBD92546B3E77846FDF72CFC9C
:10A5080022E024F47F6424F00F0404F580542378B7
:10A518001C44A642C1D92388019A02EB83029742C0
:10A52800BBD9009B634023F47F6323F00F03002B08
:10A53800B3D16388013B9BB247F6FE618B42ACD82E
:10A5480001922388002BD8D0238804EB830323F4BB
:10A558007F6222F00F029342D3D06288B2F5FE4F99
:10A56800CFD01C46D5E7124A526901208DF8080061
:10A578000392009A059204930E4A02A900F040FE45
:10A5880070B90B49019B23F003024B6913444B61DB
:10A5980014B1074B1C6185E77846FDF7DDFBF8E74A
:10A5A800002000E0012006B0BDE8F0810120FAE7B4
:10A5B800503800206C38002008B54FF010235B6934
:10A5C800B3F1FF3F03D04FF010235B6963B94FF03D
:10A5D80080525169136903FB01F3A3F58053054ABF
:10A5E8001360FFF7B9FD08BD4FF010235B69A3F5B1
:10A5F8008053F2E77038002010B50446B0B1104B14
:10A608001B78CBB10E4BD968E3685879A3EB0032BD
:10A61800914213D31A79121A02F57F2202F6FF72B9
:10A6280003EB0233994205D9002006E07846FDF78E
:10A6380093FBE4E7012000E0002010BD0020FCE7C8
:10A6480050380020024B1878003018BF012070479E
:10A658005038002010B504460E4B1B78ABB9237850
:10A66800032B02D07846FDF777FB0A4B9C60E26823
:10A67800DA6000225A601A76012018705A76064964
:10A6880000F0ACFDFFF720FD10BD7846FDF764FB38
:10A69800E5E700BF50380020B5A10200014B18685B
:10A6A800704700BF7038002010B5044680B1636859
:10A6B8001BB123680BB1A36813B97846FDF74CFBAF
:10A6C800A3685A1E134207D10023E360236110BD1B
:10A6D8007846FDF741FBEAE77846FDF73DFBF3E7EF
:10A6E80070B5F0B104468268EAB1EFF3108572B62E
:10A6F8000669C268964210D0084621686268A36855
:10A70800013B1E4006FB021108B117F0FBFF23694D
:10A718000133236165B962B606E03DB962B6052525
:10A7280002E00E2500E00925284670BD0525FBE757
:10A738000025F9E7C0F30B0333BB39B301F6FF710A
:10A74800090B134B0222C3F80425114BD3F800342C
:10A75800002BFAD000220AE00D4BC3F808050C4B79
:10A76800D3F80034002BFAD000F5805001328A4229
:10A77800F2D3074B0022C3F80425054BD3F8003465
:10A78800002BFAD00020704710207047092070472E
:10A7980000E0014010F0030F2FD111F0030F2FD16B
:10A7A80082B312F0030F2FD110B49208174B012473
:10A7B800C3F80445154BD3F80034002BFAD002E057
:10A7C800043004312246541E52B10B68B3F1FF3FE6
:10A7D800F6D003600D4BD3F80034002BFAD0EFE726
:10A7E8000A4B0021C3F80415084BD3F80034002B9A
:10A7F800FAD010465DF8044B704710221046704797
:10A808001022FBE70922F9E70922F7E700E00140F7
:10A818004388012B05D0022B01D1043008600120A8
:10A82800704704304860FAE708B508220221084852
:10A8380003F0EFFF38B1074A91684160127B02725A
:10A8480004F020F808BD044804F04AF9FAE700BF0C
:10A8580080380020CC380020082E00200E4B1B78B2
:10A86800CBB910B50D4B5C6804F50054B4F1807F8A
:10A8780000D910BD04220121094803F0CAFF30B1F4
:10A888004460054A0121117003F0FCFFF1E7054817
:10A8980004F026F9EDE77047E0380020CC380020B6
:10A8A80080380020F82D002010B5044608B1A047D4
:10A8B80010BD7846FDF750FAF9E7000008B5012108
:10A8C8000C4804F007F820B902210A4804F002F8FD
:10A8D80028B1094804F004F9FFF7C0FF08BD074A8A
:10A8E8000023136053609360D3601361044A1370AC
:10A8F800F2E700BF80380020282E0020CC38002046
:10A90800A438002000B58DB00B4B1B7B012B0ED05B
:10A91800094A926804928DF8083003900CA8022323
:10A9280000F82C3DFFF75EF80DB05DF804FB024A15
:10A938009268013A0492EEE7CC38002010B58CB04A
:10A948000C4682B94B88012B20D1134B1B7833B1AD
:10A958006268124B5A60104B00221A7016E0784653
:10A96800FDF7FAF9F4E7032A12D12C22002101A8F5
:10A9780017F0F1FE11238DF804300394084BDA68C0
:10A9880005921B69069301A8FFF72CF80CB010BDBF
:10A998007846FDF7E1F9E8E7E0380020CC380020F8
:10A9A8008038002000B583B001F040FF00210091FD
:10A9B80001916B46144A154803F020FE009BBBB179
:10A9C800019AAAB1186812498860187908739342E5
:10A9D80001D91B79A3B112680D4B1A600C4B1A6888
:10A9E8005A60FFF73BFF01F065FF03B05DF804FB19
:10A9F800074B00221A609A601A73FFF715FFEDE7FC
:10AA080000220A60EAE700BF19A802008038002087
:10AA1800CC38002008B504F0BDF8A0F5805008BD7A
:10AA280000B587B000230093019302930393049326
:10AA38000593FFF7EFFF009001230193064B039363
:10AA48006946064803F0FDFF10B907B05DF804FB3E
:10AA5800034804F045F8F8E745A9020080380020CB
:10AA6800182E002010B50B4B00241C605C609C6005
:10AA7800DC601C6101F05EF9074B5860074A9A6078
:10AA8800074ADA601C615C61064B1C70FFF7C8FF5F
:10AA980010BD00BFCC380020A8380020DDAB020074
:10AAA80000879303E138002008B5084B1B7803B1F1
:10AAB80008BD0748074B036000F04AFE064801F04E
:10AAC800C3F8024B01221A70F2E700BF7C3800205D
:10AAD800C038002005AD0200A838002010B501F0EC
:10AAE800A5FE164B1B7BFBB9144B9B7B0BBB134B77
:10AAF8001A8A41F282639A4204D8114B1B788BB1AF
:10AB0800012300E00123B3B10C4B01221A73002486
:10AB18001C829A6801329A60FFF786FE2046FFF78A
:10AB2800F1FE02E00023EEE7082401F0C3FE204610
:10AB380010BD0824F9E70824F7E700BFCC38002047
:10AB4800E138002010B501F071FE204B5B7B9BB112
:10AB58001E4B9B7BF3B91D4B1A8A41F282639A42C2
:10AB680004D81B4B1B782BB1012300E001239BB1B8
:10AB7800012302E00023FAE700231C460BB3134B22
:10AB880000225A731B7B4BB1012B0ED07846FDF780
:10AB9800E3F816E00023F0E70023EEE7FFF79EFF57
:10ABA80078B17846FDF7D8F80BE0084B002018601C
:10ABB800586018731882FFF7A5FEFFF735FEFFF7F8
:10ABC8004DFE01F077FE204610BD00BFCC380020B6
:10ABD800E138002008B5214B1B7B7BB1012B20D02D
:10ABE8007846FDF7B9F81D4A138A013313821B4BC7
:10ABF8005B8A13B1013B194A538208BD174B1A8A65
:10AC080041F282639A4204D8154B1B783BB1012369
:10AC180000E00123002BE6D0FFF794FFE7E70023CD
:10AC2800F8E70E4B1B8A41F28262934204D80C4A21
:10AC3800127872B1012200E00122002AD3D042F238
:10AC4800B012934207D9054B01225A73FFF77AFFD6
:10AC5800CDE70022F1E7FFF775FFC4E7CC38002005
:10AC6800E138002010B5244B1B7B002B35D104465E
:10AC7800214B5B8A2BBB1AB91F4B9B688B4205D3B0
:10AC8800FAB11D4B9B6801338B421AD21A4B9B6851
:10AC98002A338B4223D3184B9B7B03BB164B9960FB
:10ACA80000221A605A601A8242F6065159825A7373
:10ACB8001A73FFF7B9FDFFF7D1FD2046FFF722FE13
:10ACC8000DE062B10C4B9B6801338B4207D10A4BF4
:10ACD80001225A73FFF736FF01E0012B00D010BDA7
:10ACE800002AFCD1044B9B688B42F8D1024B01220D
:10ACF8005A73FFF727FFF2E7CC3800200378042BBC
:10AD080000D0704743681B78002BFAD010B58468D0
:10AD1800027E437E012A14BF00220122416904F108
:10AD28001000FFF79FFF10BD10B5184B1A685B683D
:10AD38009A4225D20446154B1B7B012B13D0144B8A
:10AD48009A4212D2114B1A685B68403B9A4214D25D
:10AD5800EFF3108072B60D4A1368591C1160236016
:10AD680090B962B610BD0B4BEAE7084B01225A7343
:10AD7800FFF7E8FE0028EBD1E4E7FFF76FFDE7E710
:10AD8800FFF76CFD0F20EDE70020EBE7CC38002043
:10AD9800FFFF7F0000E0FF0008B568B90C4B1B6897
:10ADA80093B10B4A1368013B136063B9094B002246
:10ADB8009A73FFF7C7FE06E0064B01229A73044A0E
:10ADC80013680133136008BD7846FCF7C5FFE8E750
:10ADD80078380020CC38002000B58DB0ADF80800D8
:10ADE8008DF8102003910CA8032300F82C3DFEF7E2
:10ADF800F9FD0DB05DF804FB014B9868704700BF82
:10AE0800CC380020054B1B7B012B02D0034B9868E4
:10AE18007047024B98680138704700BFCC38002053
:10AE2800044B9B68584010F0010F00D0013B1846B6
:10AE3800704700BFCC380020014B187B704700BF1B
:10AE4800CC38002038B50B4B1B788BB9094B012245
:10AE58001A70094DA8602973FFF7E6FC0020FFF778
:10AE680051FD00242C606C60FFF7F8FC204638BDCB
:10AE78000820FCE7A4380020CC3800202DE9F04158
:10AE8800002724E02449BC2303FB04F3CA5A0132F7
:10AE9800CA520221284602F0E4FB01360221284664
:10AEA80002F0AFFB80B11C4ABC2303FB0423D3F898
:10AEB8000880B8F1000FE5D0BC2303FB04F3D25A95
:10AEC80001463846C047DDE78EB90137FFB2022F89
:10AED8001FD83C46BC2303FB07F308330E4D1D4423
:10AEE80004350221284602F08CFB0026DAE700210F
:10AEF800284602F01EFC0828E7D1074BBC2202FBBB
:10AF08000434A368002BE0D000220449384698474F
:10AF1800DBE70120BDE8F081EC380020AC3204000A
:10AF280008B5082383731023437300F11C0343619E
:10AF38000323037300F1180303610C3002F0CBFB09
:10AF480008BD000008B50378012B06D0022B07D0F6
:10AF58007846FCF701FF002001E04FF4A97008BD16
:10AF68000048FCE7645E010008B50278012A07D0B2
:10AF7800022A13D07846FCF7EFFE4FF4FA7308E084
:10AF880083685B1A98084FF4A97303FB00F303F571
:10AF9800FA730748984228BF184608BD83685B1AA9
:10AFA800180B044B03FB00F303F5FA73F1E700BF3A
:10AFB80060850100645E010038B5044601210C304B
:10AFC80002F01FFB054678B1084BC4F89C300023FB
:10AFD800C4F8A0306168FFF7C7FFC4F8A800C4F838
:10AFE800AC40012384F8B830284638BD15B10200BA
:10AFF80010B50446FFF7E0FF20B104F19C000DF006
:10B00800F1FA00B910BD7846FCF7A6FEFAE7000091
:10B01800F8B506460C46174615680378012B18D173
:10B028001249A1FB0431C9098900B468641B8C4228
:10B0380000D30C468CB1706825F00305F1682246F0
:10B0480029442844FFF7A6FB58B93B681C443C60D8
:10B05800F8BD7846FCF780FEE2E77846FCF77CFE10
:10B06800E9E77846FCF778FEEFE700BFEB5DF260B2
:10B07800F8B507460C46164615680378022B16D114
:10B08800114BA3FB04231B0C1B03BC68641B9C42D1
:10B0980000D31C467CB1786825F003052146284476
:10B0A800FFF748FB58B933681C443460F8BD78464C
:10B0B800FCF752FEE4E77846FCF74EFEEBE77846ED
:10B0C800FCF74AFEEFE700BFB77609BB38B505467F
:10B0D8000C4611462378012B06D0022B0FD0784658
:10B0E800FCF73AFE002304E0021D2046FFF790FF1C
:10B0F800A3686868984214BF0020012038BD021D6B
:10B108002046FFF7B5FFA368F3E700002DE9F843F1
:10B118000F46D1F8A850234B1B7863B90646A5F50E
:10B12800FA7501F10C090121484602F06AFA8046D5
:10B1380040B1002422E00DF091FA002387F8B830DE
:10B14800BDE8F8837846FCF707FEF2E70DF086FACB
:10B158000121484602F085FA00237B6087F8B83061
:10B16800114B186801F0FAFB3846FFF741FFE7E793
:10B178004046FFF7E7FE2044A8420CD82A1B414668
:10B188003846FFF7A3FF0028E0D101F029FA841B15
:10B19800EED5341AECE70DF061FA3846FFF728FFD0
:10B1A800CEE700BFE8380020E438002010B5084892
:10B1B80001F0B4FB074B1860002406E0064BBC20E6
:10B1C80000FB0430FFF7ACFE0134022CF6D910BDA9
:10B1D80085AE0200E4380020EC38002038B504467B
:10B1E8000D46022805D8054BBC2202FB0434A56095
:10B1F80038BD7846FCF7B0FDF5E700BFEC38002015
:10B208002DE9F84306460C461746022816D8CCB155
:10B218002378012B1AD0022B3ED16368C3F30B03AA
:10B22800002B31D1A368C3F30B03002B30D1A368E3
:10B23800002B34D17846FCF78FFD30E07846FCF7D8
:10B248008BFDE4E77846FCF787FDE1E7636813F0D8
:10B25800030F0DD1E36813F0030F0DD1A36813F0AA
:10B26800030F0DD1A368D3B97846FCF775FD16E036
:10B278007846FCF771FDEDE77846FCF76DFDEDE7E4
:10B288007846FCF769FDEDE77846FCF765FDC9E708
:10B298007846FCF761FDCAE77846FCF75DFDEFF3F9
:10B2A800108872B6BC2505FB06F505F108032A4D82
:10B2B8001D4404350021284602F0A3F9814678B3DD
:10B2C8000021284602F0CDF920686168A268E36889
:10B2D800C9F80000C9F80410C9F80820C9F80C30EA
:10B2E8002FB11D4ABC2303FB06235B883B801A4A07
:10B2F800BC2303FB06235A8801325A8093F8B830DE
:10B3080083B9164B1B7813B10024A1460CE0124BED
:10B31800BC2000FB0630FFF74FFE8146002403E007
:10B32800042401E00024A146B8F1000F00D162B660
:10B33800B9F1000F09D0BC2000FB06F69836064884
:10B34800304404300DF04EF910B92046BDE8F883BA
:10B358007846FCF701FDF8E7EC380020E8380020D3
:10B3680038B50446EFF3108572B610B9164B1B6852
:10B3780073B18CB1144A136801331360124B1B6804
:10B38800003318BF0123114A137005B962B638BDDE
:10B398007846FCF7E1FCECE70B4B1C68013C1C60B1
:10B3A8000CB1EBE70134022CE8D8094ABC2303FBB3
:10B3B800042393F8B830002BF4D1BC2000FB042000
:10B3C800FFF716FEEEE700BF203B0020E83800201C
:10B3D800EC38002018B1830B024AD05C704700207B
:10B3E800704700BFBC32040012DF704700B583B05D
:10B3F8001378A3B1042B14D1072110F8013C163B94
:10B40800152B31D8DFE803F0593030303030303088
:10B4180030303030303030303030302E0F3A517DCF
:10B42800EBE70021E9E7022901D007291CD110F830
:10B43800021C013901F07EFEB0B1264B1B6813F0E7
:10B44800400F11D0244B1B68012B0DDD234BD3F883
:10B4580004350190224A009291222249022002F0EA
:10B4680051FB01E0022902D003B05DF804FB10F89B
:10B47800021C0139C9B213F089F9F5E70229F3D1A1
:10B4880010F8021C0139C9B203F006FE0028EBD0FF
:10B49800104B1B6813F0400FE6D00F4B1B68012BB5
:10B4A800E2DD0E4BD3F8043501900F4A0092A42236
:10B4B8000C49022002F026FBD6E701884FF6E46328
:10B4C8009942D1D110F8021C03390230FCF792FBE3
:10B4D800CAE700BF482E0020442E0020001001407B
:10B4E80030330400243304005C33040070B58AB0A0
:10B4F8000DF0F2FD58B3064600238DF8103005AC68
:10B5080005460FCD0FC42B682360727D052A04D928
:10B51800337D03F00F03072B20D1184B1B689BB119
:10B5280004AB0393337DC3F303038DF80430737DB9
:10B53800062B1DD9063B8DF8053006F11D03029335
:10B548000E4B1B6801A8984730460DF0A5FD0DF07D
:10B55800DDFD80F00100C0B20AB070BD307D04ABE3
:10B56800063A06F11D0100F00F000CF043FBD4E78A
:10B5780000238DF805300293E2E700BF283B002046
:10B588000B4B1B78032B00D0704700B58DB0084BD0
:10B5980004221A702C22002101A817F0DCF81B23C2
:10B5A8008DF8043001A8FEF71DFA0DB05DF804FB14
:10B5B800243B002070B582B02E4B1B78002B51D154
:10B5C800002853D0067A0F2E01D0062E50D10446FB
:10B5D80005F0F0FBE06870B1FCF714FF0DF107000F
:10B5E800FFF702FF054600283DD19DF80730012BE3
:10B5F80004D0022537E0FCF713FFEFE7FCF732FF32
:10B6080000F00EFB304601F0BFF8E07800F02EF9AC
:10B6180000F0B8FE0CF070FF17480DF013FE0CF0A8
:10B6280087FCFFF7C3FD04F09FFD00F00BFD05F05C
:10B6380083FB204601F0E0FC2046FDF70FFF04F0F5
:10B6480013F9FCF7D7FA18B1062801D005460AE025
:10B658000A480CF0B1FA0A4B00221A60054B012285
:10B668001A7000E00825284602B070BD0E25FAE7DA
:10B678000725F8E7243B0020F5B40200382E002007
:10B68800283B002010B582B01C4B1B78012B0BD037
:10B698007BB3033B012B2CD80CF094FF044648BB2A
:10B6A800164B02221A7025E00DF0D4FC01F0B6FC0E
:10B6B800FDF716FFFCF79EFA0446B8B1062815D028
:10B6C8000F4B1B6813F4804F14D00E4B1B68012BD3
:10B6D80010DD0D4BD3F8043501900C4A009240F26E
:10B6E80097120B49022002F00DFA03E001F078F8F6
:10B6F800D2E70824204602B010BD00BF243B00203A
:10B70800482E0020442E002000100140C0320400C2
:10B718002433040008B50A4B1B78022B02D00823F7
:10B72800184608BD064B03221A7006480CF006FF9F
:10B7380003460028F4D07846FCF70EFB0023EFE719
:10B74800243B002089B5020008B5FDF7CDFE08BDF1
:10B7580008B5FEF76FF908BD08B5FEF77BF908BD17
:10B7680008B500F0D5FD002008BD0000014B1860A9
:10B77800704700BF283B002008B506F0EBFE08BD67
:10B78800064A136801331360B3F1704F02D0034BBC
:10B7980018687047134601221A60F8E72C3B00200E
:10B7A80010B5044618B100232360636010BD7846C5
:10B7B800FCF7D2FAF7E738B50C46054668B184B10C
:10B7C80000236360EFF3108372B62A686AB16A686F
:10B7D80054606C6003B962B638BD7846FCF7BCFAB1
:10B7E800EDE77846FCF7B8FAEAE72C60F1E710B520
:10B7F800044658B1EFF3108372B6206808B1426866
:10B808002260226832B103B962B610BD7846FCF7EF
:10B81800A3FAEFE76260F6E710B5044608B12068BE
:10B8280010BD7846FCF798FAF9E735DF70473CDF3A
:10B838007047000010B504464FF0FF30FFF7F5FFE2
:10B848004FF0FF312046FFF7F2FFBFF34F8F054956
:10B85800CA6802F4E062044B1343CB60BFF34F8F16
:10B8680000BFFDE700ED00E00400FA05072814D842
:10B87800DFE800F0080C1504110F0A066420704771
:10B8880014207047FA2070471E2070474FF4FA7052
:10B898007047322070474B207047FA207047962037
:10B8A80070470000024B5868103840B2704700BF1C
:10B8B80000ED00E0034600280FDB5B11084A52F850
:10B8C8002330424200F01F0002F01F0258BF5042CE
:10B8D80023FA00F000F00100704700F11F03ECE7C5
:10B8E80000E100E046DF7047F8B504460D464B1E00
:10B8F800DBB2012B09D8002222616261A261E261F8
:10B908002046FFF7EFFF012616E07846FCF724FAF9
:10B91800F1E7CA5CC8185200D2B2407842EAD012A5
:10B92800CA5401339BB20E2BF3DDCB7B5B00CB7388
:10B93800002F08DB0136F6B2AE420BD8214611F9CA
:10B94800207F0023EFE794F82F3083F0870384F8F3
:10B958002F30EFE7F8BD2DE9F04190B084460C4652
:10B9680096461F4602F10F0636111FFA86F804ADF7
:10B978000068DCF80410DCF80820DCF80C300FC58F
:10B988000EF00F05B8F1000F02D085B1002300E0DA
:10B99800002398466BB1012104A8FFF7A5FFB8F171
:10B9A800000F1BD0B0B20138000110230EE00123B4
:10B9B800EFE70221F0E7013B9BB22218D25C10A905
:10B9C800194411F8101C4A400DF80320002BF2D13D
:10B9D80000250C950D950E950F9534E0B1B20139FF
:10B9E800ADB22A4604EB0111684616F08BFE80239F
:10B9F8000DF805306B1C03E000220DF8032001331D
:10BA08000F2BF9DD10230AE0013B9BB21DF8032040
:10BA180010A9194411F8101C4A400DF80320002BF6
:10BA2800F2D1D5E7013B9BB210AA1A4412F8102CA8
:10BA38002118C95C4A4008A9CA54002BF2D104A8AD
:10BA4800FFF750FF0135B3B2013BAB4202DD2801DD
:10BA58001023F2E710230AE0013B9BB210AAD11889
:10BA680011F8402C11F8101C4A4008A9CA54002BA0
:10BA7800F2D104A8FFF736FF0CAC0FCC3860796020
:10BA8800BA60FB6010B0BDE8F081000010B5044654
:10BA9800134B1B684BB14068114B1B685B68C31A9A
:10BAA800002B02DB0E4B19680DE00D4B1A68626122
:10BAB8001C600B4A938801339BB2938063B10123C6
:10BAC800237010BD19464B691BB15A68121A002A17
